:020000040800F2
:1000000000500020E5160008490800084B080008C9
:100010004D0800084F0800085108000800000000C3
:10002000000000000000000000000000530800086D
:10003000550800080000000057080008590800088B
:100040002D1700082D1700082D1700082D17000880
:100050002D1700082D1700082D1700082D17000870
:100060002D1700082D1700082D1700082D17000860
:100070002D1700082D1700082D1700082D17000850
:100080002D1700082D1700082D1700082D17000840
:100090002D1700082D1700082D1700082D17000830
:1000A0002D1700082D1700082D1700082D17000820
:1000B0002D1700082D1700082D1700082D17000810
:1000C0002D1700082D1700082D1700082D17000800
:1000D0002D1700082D1700082D1700082D170008F0
:1000E0002D1700082D1700082D170008000000002C
:1000F0000000000000000000000000000000000000
:0C01000000000000000000005FF808F1A3
:10010C000348044B834202D0034B03B1184770479A
:10011C000C0000200C0000200000000005480649DF
:10012C000B1AD90F01EBA301491002D0034B03B1F9
:10013C00184770470C0000200C0000200000000045
:10014C0010B5064C237843B9FFF7DAFF044B13B113
:10015C000448AFF300800123237010BD0C00002075
:10016C00000000003017000808B5044B1BB104490F
:10017C000448AFF30080BDE80840CFE70000000062
:10018C00100000203017000870B50D4E0D4D761B79
:10019C00B61006D0002455F8043B01349847A6420B
:1001AC00F9D1094E094D01F0BDFA761BB61006D0F7
:1001BC00002455F8043B01349847A642F9D170BD90
:1001CC00B4170008B4170008B8170008B4170008D3
:1001DC00830730B548D0541E002A3FD00346CAB21C
:1001EC0001E0013C3AD303F8012B9D07F9D1032C14
:1001FC002DD9CDB245EA05250F2C45EA054536D952
:10020C00A4F1100222F00F0C03F1200EE6444FEA89
:10021C00121C03F1100242E9045542E90255103256
:10022C007245F8D10CF1010214F00C0F03EB021221
:10023C0004F00F0C13D0ACF1040323F003030433CC
:10024C00134442F8045B9342FBD10CF003042CB131
:10025C00CAB21C4403F8012B9C42FBD130BD64464E
:10026C001346002CF4D1F9E703461446BFE71A46AF
:10027C00A446E0E708B5052000F092FB08BD00009D
:10028C0010B5012210210A4800F0AEFF094C0022E3
:10029C000121204600F0A8FF322000F081FB012252
:1002AC001146204600F0A0FF642000F079FB10BD41
:1002BC0000080140000C01402DE9F04188B00024F9
:1002CC0004940594069407942E4B9A6942F01002FC
:1002DC009A619A6902F010020092009A9A6942F0AF
:1002EC0020029A619A6902F020020192019A9A699D
:1002FC0042F004029A619A6902F004020292029A94
:10030C009A6942F008029A619B6903F0080303930F
:10031C00039B1D4E01224FF40051304600F064FF48
:10032C00DFF8688001221021404600F05DFF184D77
:10033C0001221146284600F057FF4FF40053049356
:10034C000127059706940223079304A9304600F071
:10035C0039FE102604960DEB0601404600F032FEE5
:10036C0004970DEB0601284600F02CFE049605942C
:10037C0006940DEB0601284600F024FE08B0BDE8FB
:10038C00F08100BF00100240001001400008014045
:10039C00000C0140F0B583B004460D461646FFF73D
:1003AC0069FF0A4F00221021384600F01DFF64231C
:1003BC00009333462A462146054801F062F8012293
:1003CC001021384600F010FF03B0F0BD00080140CA
:1003DC002C00002000B585B01D238DF80830030AD1
:1003EC008DF809308DF80A0000238DF80B308DF84C
:1003FC000C3000938DF804300522694602A8FFF7F3
:10040C00C9FF9DF8040005B05DF804FB00B583B08E
:10041C00C023ADF804300023ADF800300222694649
:10042C0001A8FFF7B7FF9DF80100C0F3021003B05D
:10043C005DF804FB00B587B0002303930493ADF87B
:10044C0014308023ADF80430022203A901A8FFF771
:10045C00A1FF052000F0A4FA47F68973ADF804302B
:10046C00022203A901A8FFF795FF142000F098FAC7
:10047C0007238DF80430012203A901A8FFF78AFF96
:10048C00052000F08DFA9623ADF80430022203A962
:10049C0001A8FFF77FFF052000F082FA40F29D13C0
:1004AC00ADF80430022203A901A8FFF773FF052061
:1004BC0000F076FA324B1B68ADF804301B0C8DF84B
:1004CC000630032203A901A8FFF764FF052000F002
:1004DC0067FA4FF4C573ADF80430022203A901A8E2
:1004EC00FFF758FF052000F05BFA264B93E803005A
:1004FC0001908DF80810052203A901A8FFF74AFF07
:10050C00052000F04DFA204B93E8030001908DF884
:10051C000810052203A901A8FFF73CFF052000F0F5
:10052C003FFA1A4B1B68ADF804301B0C8DF80630E3
:10053C00032203A901A8FFF72DFF052000F030FAD4
:10054C00134B93E8030001908DF80810052203A9C2
:10055C0001A8FFF71FFF052000F022FA0D4B93E8CE
:10056C00030001908DF80810052203A901A8FFF7DC
:10057C0011FF052000F014FA07B05DF804FB00BF72
:10058C006C17000870170008481700087817000847
:10059C007C17000884170008F0B591B000240D9466
:1005AC000E94ADF83C408023ADF8243002220DA906
:1005BC0009A8FFF7EFFE052000F0F2F94B4DAB68F0
:1005CC00ADF824301B0C8DF8263003220DA909A898
:1005DC00FFF7E0FE052000F0E3F905F10C0393E8CA
:1005EC0003000990ADF82810090C8DF82A10072289
:1005FC000DA909A8FFF7CEFE052000F0D1F90DF1E9
:10060C00140C05F114030FCBACE807002CF8023BDB
:10061C001B0C8CF800300E238DF80C308DF810402C
:10062C0009940A940B940C94FFF724FE304F224645
:10063C001021384600F0D8FD2E4D6426009601237B
:10064C0009AA03A9284600F01CFF0096012309AA59
:10065C0004A9284600F015FF00960F2309AA05A946
:10066C00284600F00EFF01221021384600F0BCFD98
:10067C00052000F095F9204B1B68ADF824301B0CBD
:10068C008DF8263003220DA909A8FFF783FE05205B
:10069C0000F086F98323099304220DA909A8FFF71A
:1006AC0079FE022000F07CF9FFF7B0FE134B1870B6
:1006BC001B78DBB2062B14BF00230123104A1370E6
:1006CC004FF4FA6000F06CF9172305930994042297
:1006DC0009A905A8FFF75EFE9DF82720094B1A70A3
:1006EC00094A13680133136011B0F0BD48170008B4
:1006FC00000801402C0000208C170008840000200A
:10070C008C000020280000208800002072B6FEE734
:10071C0008B50D480D4B03604FF482734360002302
:10072C008360C360036143614FF4007282611822DD
:10073C00C2610362436283620A23C36200F046FE15
:10074C0000B908BDFFF7E2FF2C000020003001408B
:10075C0000B591B02822002106A8FFF739FD00232F
:10076C0001930293039304930593022306930123AD
:10077C000A9310230B9306A800F03CF968B90F23D9
:10078C0001930021029103910491059101A800F0BD
:10079C0063FB20B911B05DF804FBFFF7B7FFFFF75F
:1007AC00B5FF000010B582B000F0D6F8FFF7D0FF0F
:1007BC00FFF782FDFFF7ACFF1B4B9A6942F0010279
:1007CC009A619B6903F001030193019B174A5368DB
:1007DC0023F0E06343F0007353604FF4FA7000F0C1
:1007EC00DFF8FFF74DFD4FF44870FFF7F3FD104BAA
:1007FC001870FFF70BFE0F4B1870FFF71BFE0E4C1B
:10080C0000224FF40051204600F0EEFCFFF7C4FE2E
:10081C0001224FF40051204600F0E6FC40F6B830BF
:10082C0000F0BEF8EBE700BF0010024000000140F2
:10083C00850000208600002000100140FEE7FEE746
:10084C00FEE7FEE7FEE770477047704708B500F01B
:10085C0095F808BD82B00E4B9A6942F001029A617C
:10086C009A6902F001020092009ADA6942F0805211
:10087C00DA61DB6903F080530193019B054A5368ED
:10088C0023F0E06343F00073536002B0704700BF85
:10089C00001002400000014010B586B00023029306
:1008AC000393049305930268164B9A4201D006B049
:1008BC0010BD03F560439A6942F480529A619A69BB
:1008CC0002F480520092009A9A6942F004029A61F2
:1008DC009B6903F004030193019BA0230293022361
:1008EC00039303230593084C02A9204600F06AFBEE
:1008FC004023029300230393049302A9204600F0A3
:10090C0061FBD4E7003001400008014010B50446FB
:10091C000E4B18784FF47A73B3FBF0F30C4A106853
:10092C00B0FBF3F000F0B0FC68B90F2C01D901203A
:10093C000AE0002221464FF0FF3000F06DFC054B21
:10094C001C60002000E0012010BD00BF0000002052
:10095C00080000200400002008B5074A136843F083
:10096C0010031360032000F045FC0F20FFF7CEFFAF
:10097C00FFF770FF002008BD00200240034A1168F9
:10098C00034B1B780B441360704700BF9000002092
:10099C0000000020014B1868704700BF9000002039
:1009AC0038B50446FFF7F6FF0546B4F1FF3F02D019
:1009BC00044B1B781C44FFF7EDFF401BA042FAD3FD
:1009CC0038BD00BF0000002082B0084B1B68084AED
:1009DC00A2FB03235B0A00FB03F3019300BF019B03
:1009EC005A1E0192002BF9D102B07047080000206A
:1009FC00D34D6210002800F0F18170B582B004462E
:100A0C00036813F0010F2CD0994B5B6803F00C03B7
:100A1C00042B1DD0964B5B6803F00C03082B12D0F3
:100A2C006368B3F5803F41D0002B55D103F180436F
:100A3C0003F504331A6822F480321A601A6822F41F
:100A4C0080221A6037E08A4B5B6813F4803FE7D052
:100A5C00874B1B6813F4003F03D06368002B00F036
:100A6C00BF81236813F0020F75D0814B5B6813F0C4
:100A7C000C0F5FD07E4B5B6803F00C03082B54D03B
:100A8C002369002B00F08A807A4B01221A60FFF751
:100A9C0081FF0546764B1B6813F0020F75D1FFF7EB
:100AAC0079FF401B0228F5D903209EE1704A136898
:100ABC0043F480331360636843B3FFF76BFF054661
:100ACC006B4B1B6813F4003FCBD1FFF763FF401B4C
:100ADC006428F5D9032088E1B3F5A02F09D0644B25
:100AEC001A6822F480321A601A6822F480221A6082
:100AFC00E1E703F18043A3F53C331A6842F480220A
:100B0C001A601A6842F480321A60D4E7FFF742FF89
:100B1C000546574B1B6813F4003FA2D0FFF73AFF72
:100B2C00401B6428F5D903205FE1514B5B6813F43B
:100B3C00803FA5D14E4B1B6813F0020F03D02369E5
:100B4C00012B40F04F814A4A136823F0F803616986
:100B5C0043EAC1031360236813F0080F33D0A36971
:100B6C00002B5CD0434B0122C3F88024FFF712FF0B
:100B7C0005463F4B5B6A13F0020F21D1FFF70AFFCA
:100B8C00401B0228F5D903202FE1394A136823F0C2
:100B9C00F803616943EAC1031360DCE7354B0022BB
:100BAC001A60FFF7F7FE0546314B1B6813F0020F76
:100BBC00D1D0FFF7EFFE401B0228F5D9032014E13A
:100BCC000120FFF701FF236813F0040F00F096805B
:100BDC00274BDB6913F0805F34D1254BDA6942F087
:100BEC008052DA61DB6903F080530193019B01258C
:100BFC00214B1B6813F4807F26D0E368012B3DD07A
:100C0C00002B53D103F1804303F504331A6A22F00D
:100C1C0001021A621A6A22F004021A6233E0154BBE
:100C2C000022C3F88024FFF7B5FE0546104B5B6A23
:100C3C0013F0020FC7D0FFF7ADFE401B0228F5D909
:100C4C000320D2E00025D3E70B4A136843F48073EA
:100C5C001360FFF79FFE0646074B1B6813F4807F5B
:100C6C00CBD1FFF797FE801B6428F5D90320BCE09D
:100C7C000010024000004242007000405F4A136ABC
:100C8C0043F001031362E36833B3FFF783FE0646B8
:100C9C005A4B1B6A13F0020F2FD1FFF77BFE801B00
:100CAC0041F288339842F3D903209EE0052B09D0FA
:100CBC00524B1A6A22F001021A621A6A22F00402DA
:100CCC001A62E0E74D4B1A6A42F004021A621A6A81
:100CDC0042F001021A62D6E7FFF75CFE0646474B6C
:100CEC001B6A13F0020F08D0FFF754FE801B41F271
:100CFC0088339842F3D9032077E0E5B9E369002BF8
:100D0C0072D03E4A526802F00C02082A56D0022BCE
:100D1C0017D03B4B00221A66FFF73CFE0446374BBC
:100D2C001B6813F0007F47D0FFF734FE001B02282E
:100D3C00F5D9032059E0314AD36923F08053D361AC
:100D4C00DCE72F4B00221A66FFF724FE05462B4BDF
:100D5C001B6813F0007F06D0FFF71CFE401B022817
:100D6C00F5D9032041E0236AB3F5803F1AD023491B
:100D7C004B6823F47413226A606A024313434B607A
:100D8C001F4B01221A66FFF705FE04461B4B1B681E
:100D9C0013F0007F0ED1FFF7FDFD001B0228F5D9E3
:100DAC00032022E0154A536823F40033A1680B4357
:100DBC005360DCE7002018E0002016E0012B16D071
:100DCC000E4B5B6803F48031226A914211D103F41B
:100DDC007013626A93420ED1002006E00120704726
:100DEC00012002E0012000E0002002B070BD0120D3
:100DFC00FBE70120F9E70120F7E700BF00100240F4
:100E0C00000042420F4B5B6803F00C02082A01D031
:100E1C000D487047C3F383420C49885C13F4803F40
:100E2C000BD0084B5B68C3F34043094AD35C064ABA
:100E3C0002FB00F0B0FBF3F07047064B03FB00F035
:100E4C00704700BF0010024000127A009017000893
:100E5C00A017000800093D00002800F0A08070B524
:100E6C000D460446524B1B6803F007038B420BD212
:100E7C004F4A136823F007030B431360136803F006
:100E8C0007038B4240F08D80236813F0020F17D0BC
:100E9C0013F0040F04D0474A536843F4E0635360E3
:100EAC00236813F0080F04D0424A536843F460538C
:100EBC005360404A536823F0F003A1680B4353601E
:100ECC00236813F0010F31D06368012B20D0022B63
:100EDC0025D0384A126812F0020F64D035494A689E
:100EEC0022F0030213434B60FFF754FD0646314BCF
:100EFC005B6803F00C036268B3EB820F16D0FFF74C
:100F0C0049FD801B41F288339842F0D9032045E01B
:100F1C00284A126812F4003FE0D101203EE0254A35
:100F2C00126812F0007FD9D1012037E0204B1B68EA
:100F3C0003F00703AB420AD91D4A136823F00703D9
:100F4C002B431360136803F00703AB422DD12368C6
:100F5C0013F0040F06D0174A536823F4E063E168DA
:100F6C000B435360236813F0080F07D0114A5368E2
:100F7C0023F46053216943EAC1035360FFF742FF36
:100F8C000C4B5B68C3F303130B4AD35CD8400B4B7D
:100F9C0018600B4B1868FFF7B9FC002070BD0120DE
:100FAC0070470120FAE70120F8E70120F6E700BFBF
:100FBC000020024000100240A41700080800002086
:100FCC000400002070B582B00024A446A6E0804D39
:100FDC00AA4210D007D97F4DAA420CD005F5803516
:100FEC00AA4208D013E0A5F58015AA4203D005F556
:100FFC007025AA4207D18A68002A58D0012A51D0FC
:10100C004361082403E0A5F58015AA42F3D0BEF194
:10101C00FF0F4ED80646BEF1FF0F4CD84FEA8C029C
:10102C0033680F25954023EA050304FA02F21343B3
:10103C0033604B6813F0805F6ED0674B9A6942F057
:10104C0001029A619B6903F001030193019B4FEA32
:10105C009C02951C614B53F825600CF003039D001A
:10106C000F23AB4026EA03065D4B984229D003F5CB
:10107C008063984200F08E8003F58063984200F004
:10108C008B8003F58063984219D004231AE0CC6856
:10109C00BDE7CC680434BAE7CC680834B7E7CC6851
:1010AC000C34B4E703610824B1E70024AFE704244F
:1010BC00ADE7061DAFE7ACF108029200B0E70323E1
:1010CC0000E00023AB4033430232444D45F822305C
:1010DC004B6813F4801F61D0424A936843EA0E03B5
:1010EC0093604B6813F4001F5ED03E4AD36843EA0A
:1010FC000E03D3604B6813F4003F5BD0394A53683E
:10110C0043EA0E0353604B6813F4803F58D0354AC2
:10111C00136843EA0E0313600CF1010C0A6832FAEF
:10112C000CF353D0012303FA0CF302EA030E33EA57
:10113C000202F1D14A68122A3FF649AF122A3FF651
:10114C0066AF01A555F822F0031000089B100008AB
:10115C00A5100008B71000081B1000081B10000891
:10116C001B1000081B1000081B1000081B100008A7
:10117C001B1000081B1000081B1000081B10000897
:10118C001B1000081B1000081B1000089F10000803
:10119C00AB100008012395E7022393E7114A9368EB
:1011AC0023EA0E0393609CE70E4AD36823EA0E03EE
:1011BC00D3609FE70B4A536823EA0E035360A2E700
:1011CC00084A136823EA0E031360A5E702B070BD4A
:1011DC0000002210000031100010024000000140FD
:1011EC0000080140000401400AB101617047090484
:1011FC0001617047074AD36823F4E0631B041B0C9E
:10120C00000200F4E060034343F0BF6343F4003397
:10121C00D360704700ED00E000B5194BDB68C3F3F9
:10122C000223C3F1070CBCF1040F28BF4FF0040CD0
:10123C0003F1040EBEF1060F18D9033B4FF0FF3E2D
:10124C000EFA0CFC21EA0C0199400EFA03F322EA87
:10125C000303194300280BDB0901C9B200F16040FC
:10126C0000F5614080F800135DF804FB0023E5E70E
:10127C0000F00F000901C9B2024B1954F4E700BF8A
:10128C0000ED00E014ED00E00138B0F1807F0BD2EE
:10129C004FF0E0235861054AF02182F8231000201A
:1012AC00986107221A6170470120704700ED00E039
:1012BC00704700002DE9F04782B005468846174676
:1012CC001E46FFF767FB0A9B1B1A03EB0609FFF789
:1012DC0061FB82462B4B1B68C3F3CB3309FB03F337
:1012EC0001932B689C6838EA04030CBF4FF0010C87
:1012FC004FF0000CBC4540D0B6F1FF3FF1D0FFF7EA
:10130C0049FBA0EB0A0048450AD2B9F1000F07D0FF
:10131C00019A02B14A46019B013B01939146E0E7D9
:10132C002A68536823F0E00353606B68B3F5827F3F
:10133C000BD0AB6AB3F5005F14D0012385F85130A4
:10134C00002385F85030032018E0AB68B3F5004F4C
:10135C0002D0B3F5806FECD12A68136823F04003F8
:10136C001360E6E72A68136823F4005313602A68B5
:10137C00136843F400531360DFE7002002B0BDE8AC
:10138C00F08700BF0800002070B582B006460C46FE
:10139C00154600920B4601220221FFF78BFF48B93C
:1013AC0000952346002280213046FFF783FF38B991
:1013BC0002B070BD736D43F0200373650320F7E733
:1013CC00736D43F0200373650320F1E7002856D0BA
:1013DC0010B50446436A33B94368B3F5827F05D030
:1013EC000023C36102E00023036143610023A36275
:1013FC0094F85130002B3CD0022384F851302268F1
:10140C00136823F040031360636803F48273A268CB
:10141C0002F404421343E26802F4006213432269AB
:10142C0002F002021343626902F001021343A26943
:10143C0002F400721343E26902F038021343226A89
:10144C0002F080021343A26A02F400522168134393
:10145C000B60638B226803F0040353602268D3692A
:10146C0023F40063D36100206065012384F85130BC
:10147C0010BD84F850302046FFF70EFABCE701206F
:10148C0070472DE9F04383B00446884691461F46C9
:10149C000A9DFFF77FFA064694F85130DBB262687A
:1014AC00012B0AD0B2F5827F40F00581A268002A98
:1014BC0040F00581042B40F00481B8F1000F00F0DE
:1014CC000281B9F1000F00F00081002F00F0FF80C5
:1014DC0094F85030012B00F0FC80012384F850303C
:1014EC0094F85130DBB2042B02D0052384F8513030
:1014FC0000236365C4F83890E787A787C4F8308069
:10150C00E786A7862364636423681A6812F0400F89
:10151C0003D11A6842F040021A60E368B3F5006F19
:10152C0011D063680BB1012F0BD1226B2368127899
:10153C001A73236B01332363E38E9BB2013B9BB283
:10154C00E386012771E063680BB1012F0BD1226B8D
:10155C0023681288DA60236B02332363E38E9BB219
:10156C00013B9BB2E38601271BE023689A6812F0CB
:10157C00010F0ED0E28F92B25AB1DA68A36B1A80C7
:10158C00A36B0233A363E38F9BB2013B9BB2E38754
:10159C000127FFF7FFF9801BA84202D3B5F1FF3FEB
:1015AC001ED1E38E9BB21BB9E38F9BB2002B62D092
:1015BC0023689A6812F0020FD7D0E28E92B2002AFA
:1015CC00D3D0002FD1D0226B1288DA60236B023378
:1015DC002363E38E9BB2013B9BB2E3860027C4E7F7
:1015EC00012384F85130002384F85030032063E049
:1015FC0023689A6812F0010F0ED0E28F92B25AB1A2
:10160C00DA68A36B1A70A36B0133A363E38F9BB2ED
:10161C00013B9BB2E3870127FFF7BCF9831BAB426D
:10162C0002D3B5F1FF3F1ED1EDB1E38E9BB213B9DE
:10163C00E38F9BB2FBB123689A6812F0020FD7D0EC
:10164C00E28E92B2002AD3D0002FD1D0226B127826
:10165C001A73236B01332363E38E9BB2013B9BB262
:10166C00E3860027C4E7012384F85130002384F873
:10167C005030032020E0324629462046FFF784FEF6
:10168C0090B9A36833B901932368DA6801929B6817
:10169C000193019B012384F85130002384F85030CE
:1016AC00636D4BB1012007E020236365002384F8B0
:1016BC005030012000E0022003B0BDE8F08302208E
:1016CC00FAE70220F8E70120F6E70120F4E7012011
:1016DC00F2E70220F0E70000FFF7EAFD0B480C49A7
:1016EC000C4A002302E0D458C4500433C4188C4272
:1016FC00F9D3094A094C002301E013600432A242D9
:10170C00FBD3FEF741FDFFF74DF8704700000020BA
:10171C000C000020BC1700080C00002094000020D6
:10172C00FEE70000F8B500BFF8BC08BC9E46704749
:0C173C00F8B500BFF8BC08BC9E46704722
:1017480095040700010000008F0000008C000800CD
:101758000F01000040536B88000000000148490059
:101768000000000098D7DB008636403D600000008E
:101778008E1604008B0C0401010000000D07403494
:101788004400000002FFFF000203040506070809E1
:101798000A0B0C0D0E0F10100102000000000000D3
:0C17A8000000000001020304060708090D
:0417B40075010008B3
:0417B8004D010008D7
:0C17BC00010000001000000000127A0084
:04000005080016E5F4
:00000001FF
