:020000040800F2
:100000000050002071220008CD050008CF0500082F
:10001000D1050008D3050008D50500080000000040
:10002000000000000000000000000000D7050008EC
:10003000D905000800000000DB050008DD05000808
:10004000B9220008B9220008B9220008B922000824
:10005000B9220008B9220008B9220008B922000814
:10006000B9220008B9220008B9220008B922000804
:10007000B9220008B9220008B9220008B9220008F4
:10008000B9220008B9220008B9220008B9220008E4
:10009000B9220008B9220008B9220008B9220008D4
:1000A000B9220008B9220008B9220008B9220008C4
:1000B000B9220008B9220008B9220008B9220008B4
:1000C000B9220008B9220008B9220008B9220008A4
:1000D000B9220008B9220008B9220008B922000894
:1000E000B9220008B9220008B92200080000000067
:1000F0000000000000000000000000000000000000
:0C01000000000000000000005FF808F1A3
:100110000348044B834202D0034B03B11847704796
:100120000C0000200C0000200000000005480649DB
:100130000B1AD90F01EBA301491002D0034B03B1F5
:10014000184770470C0000200C0000200000000041
:1001500010B5064C237843B9FFF7DAFF044B13B10F
:100160000448AFF300800123237010BD100000206D
:1001700000000000BC22000808B5044B1BB1044974
:100180000448AFF30080BDE80840CFE7000000005E
:1001900014000020BC22000870B50D4E0D4D761BDA
:1001A000B61006D0002455F8043B01349847A64207
:1001B000F9D1094E094D02F081F8761BB61006D030
:1001C000002455F8043B01349847A642F9D170BD8C
:1001D000542400085424000858240008542400081B
:1001E000844641EA000313F0030349D1403A23D384
:1001F0000B6803604B6843608B688360CB68C360A7
:100200000B6903614B6943618B698361CB69C3618E
:100210000B6A03624B6A43628B6A8362CB6AC36276
:100220000B6B03634B6B43638B6B8363CB6BC3635E
:1002300040304031403ADBD230320BD30B680360A0
:100240004B6843608B688360CB68C36010301031AB
:10025000103AF3D20C3205D351F8043B40F8043B7A
:10026000043AF9D2043208D0D2071CBF11F8013B7E
:1002700000F8013B01D30B8803806046704700BF44
:10028000082A13D38B07B1D010F00303AED0C3F10B
:100290000403D21ADB071CBF11F8013B00F8013B35
:1002A000A4D331F8023B20F8023B9FE7043AD9D3AC
:1002B000013A11F8013B00F8013BF9D20B780370C9
:1002C0004B7843708B78837060467047830730B5F6
:1002D00048D0541E002A3FD00346CAB201E0013C78
:1002E0003AD303F8012B9D07F9D1032C2DD9CDB2B8
:1002F00045EA05250F2C45EA054536D9A4F110023B
:1003000022F00F0C03F1200EE6444FEA121C03F119
:10031000100242E9045542E9025510327245F8D103
:100320000CF1010214F00C0F03EB021204F00F0C9D
:1003300013D0ACF1040323F003030433134442F855
:10034000045B9342FBD10CF003042CB1CAB21C44F1
:1003500003F8012B9C42FBD130BD64461346002CB0
:10036000F4D1F9E703461446BFE71A46A446E0E78E
:1003700008B500224FF40051014801F0BBFA08BD56
:100380000010014008B501224FF40051014801F06E
:10039000B1FA08BD001001402DE9F04188B00024F9
:1003A00004940594069407942E4B9A6942F0100227
:1003B0009A619A6902F010020092009A9A6942F0DA
:1003C00020029A619A6902F020020192019A9A69C8
:1003D00042F004029A619A6902F004020292029ABF
:1003E0009A6942F008029A619B6903F0080303933B
:1003F000039B1D4E01224FF40051304601F07AFA62
:10040000DFF8688001221021404601F073FA184D90
:1004100001221146284601F06DFA4FF4005304936F
:100420000127059706940223079304A9304601F09B
:100430004FF9102604960DEB0601404601F048F9ED
:1004400004970DEB0601284601F042F90496059445
:1004500006940DEB0601284601F03AF908B0BDE814
:10046000F08100BF00100240001001400008014070
:10047000000C014010B58AB00A460B4C236800936B
:100480000123014602A800F08BFBC1B202A800F0D4
:10049000C7FC322000F00AFE20680130206000F026
:1004A00083FD0AB010BD00BF2C00002072B6FEE72D
:1004B00008B50D480D4B03604FF482734360002371
:1004C0008360C360036143614FF40072826118224C
:1004D000C2610362436283620A23C36201F060FC6B
:1004E00000B908BDFFF7E2FF3000002000300140F6
:1004F00000B591B02822002106A8FFF7E7FE0023EF
:10050000019302930393049305930223069301231B
:100510000A9310230B9306A800F0F2FD68B90F238D
:1005200001930021029103910491059101A801F02A
:1005300019F820B911B05DF804FBFFF7B7FFFFF71A
:10054000B5FF000000B583B000F08CFDFFF7D0FFD1
:10055000FFF722FFFFF7ACFF184B9A6942F0010248
:100560009A619B6903F001030193019B144A53684C
:1005700023F0E06343F0007353604FF4FA7000F02F
:1005800095FD104800F078FB00F07CFB00F096FB36
:1005900000F0E8FC0C4B186044F64813ADF800304E
:1005A000FFF7E6FE02216846FFF764FFFFF7EAFE69
:1005B00040F6B83000F07AFDEEE700BF00100240D0
:1005C00000000140300000202C000020FEE7FEE784
:1005D000FEE7FEE7FEE770477047704708B500F09A
:1005E00053FD08BD82B00E4B9A6942F001029A6138
:1005F0009A6902F001020092009ADA6942F0805290
:10060000DA61DB6903F080530193019B054A53686B
:1006100023F0E06343F00073536002B0704700BF03
:10062000001002400000014010B586B00023029384
:100630000393049305930268164B9A4201D006B0C7
:1006400010BD03F560439A6942F480529A619A6939
:1006500002F480520092009A9A6942F004029A6170
:100660009B6903F004030193019BA02302930223DF
:10067000039303230593084C02A9204601F028F8B0
:100680004023029300230393049302A9204601F020
:100690001FF8D4E70030014000080140C30903EB14
:1006A000430303EBC30383EA4000C0B270470F2348
:1006B000002207E010F803C042EA4C02CA54C25CB0
:1006C000D209013B002BF5DA7047000010B582B06B
:1006D000D0F800C044688268C368C1F800C04C60AC
:1006E0008A60CB60102016E000F10F0223E0A0F139
:1006F00010021A448A5C03F108040DEB040C1CF888
:1007000004EC00EB030C82EA0E0201F80C2001332A
:10071000032BECDD0430AF2827DC031FCB580193FB
:1007200010F00F0F1FD1C3F30722114C14F802C0B1
:1007300002460028D8DB12110E4CA25C8CEA0202A1
:100740008DF80420C3F3074C094A12F80CC08DF849
:1007500005C04FEA136C12F80CC08DF806C0DBB26E
:10076000D35C8DF807300023D2E702B010BD00BF84
:10077000EC220008E02200082DE9F04F83B0824609
:100780000C46002305E01AF80320E15C4A40E254DD
:1007900001330F2BF7DD4FF0010B6AE0E25C4F49AC
:1007A0008A5CE25401330F2BF8DD63786279627062
:1007B000627A6271627B62726373A378A27AA270BA
:1007C000A372A379A27BA271A373E37BE27AE273A3
:1007D000E279E272E278E271E3704FF0000937E00B
:1007E00004EB890514F82920697895F80280EE78E1
:1007F0000092019182EA010080EA08077740FFF742
:100800004DFF80EA0703DBB2009A534004F8293019
:10081000019981EA0800FFF741FF80EA0703DBB294
:1008200001994B406B7088EA0600FFF737FF78406C
:10083000C0B288EA000885F80280009A82EA0600C1
:10084000FFF72CFF4740FFB27E40EE7009F101092F
:10085000B9F1030FC4DD002307E003EB0B121AF814
:100860000220E15C4A40E25401330F2BF5DD0BF12D
:10087000010BBBF1090F01DC002394E7002304E026
:10088000E25C16498A5CE25401330F2BF8DD637891
:1008900062796270627A6271627B62726373A3785A
:1008A000A27AA270A372A379A27BA271A373E37B45
:1008B000E27AE273E279E272E278E271E3700023B5
:1008C00007E003F1A0021AF80220E15C4A40E2547A
:1008D00001330F2BF5DD03B0BDE8F08FEC220008EB
:1008E00030B585B00C461546002300930193029362
:1008F00003936946FFF740FF21466846FFF7D7FE9E
:100900009DF90030002B09DB29462046FFF7CFFE7A
:1009100094F90030002B06DB05B030BDE37B83F09B
:100920008703E373F0E7EB7B83F08703EB73F3E775
:10093000F0B5BDB00D4614461F4610A9FFF7C6FE20
:1009400008AA0CA910A8FFF7CBFF14F10F0313D4CA
:100950001B1113D014F00F0F1E460CBF01230023F0
:1009600000220492059206920792013E4FEA061C6D
:10097000B3B9A4EB0C0022E00F33E9E70126EFE75F
:1009800003EB0C02AA5C03F1F001694411F8C00CFE
:10099000424001F8F02C01330F2BF1DD00242CE054
:1009A0000023F9E7834212D0002403F1F0020DEB9B
:1009B000020111F8D02C624001F8F02C01330F2B0A
:1009C000ECDC8342EEDA03EB0C02AC5CEDE7802456
:1009D000EBE702EB0413E85C02F1F0030DEB030C10
:1009E0001CF8E03C58400CF8E00C01320F2AF0DD16
:1009F00004A910A8FFF7C0FE0134A64201DD0022C1
:100A0000F4E700230AE003F1F0026A4412F8F01C54
:100A100012F8E00C414002F8E01C01330F2BF2DD2C
:100A200004A910A8FFF7A8FE04AC0FCC38607960C9
:100A3000BA60FB603DB0F0BD2DE9F043B5B00446AF
:100A4000884616461F4608A93048FFF73FFE18F1B2
:100A50000F0903D44FEA2919012513E009F10F0901
:100A6000F8E70CEB00030CF1D0026A4412F8C0EC7A
:100A7000E25C8EEA020E04F803E00CF1010C614521
:100A8000EFDC01354D453EDC01238DF800300023BD
:100A90008DF801308DF802308DF803308DF8043078
:100AA0008DF8053032788DF8062072788DF80720A1
:100AB000B2788DF80820F2788DF809208DF80A7048
:100AC000C7F307228DF80B20C7F307428DF80C20DF
:100AD0003A0E8DF80D208DF80E308DF80F500DF177
:100AE000100C6B460FCB8CE80F00614608A8FFF78F
:100AF00043FE691E0801A8EB0111102900DD102139
:100B00004FF0000CBBE735B0BDE8F083EC230008E4
:100B100030B599B084460D4649218DF8101000205B
:100B20008DF811008DF812008DF813008DF8140067
:100B30008DF8150011788DF8161051788DF8171072
:100B400091788DF81810D2788DF819208DF81A3018
:100B5000C3F307228DF81B20C3F307428DF81C2036
:100B60001B0E8DF81D308DF81E008DF81F5008AC3F
:100B700004AB0FCB84E80F002A4661460CA8FFF7B0
:100B80002FFB6B4605F1100221460448FFF7D0FE0B
:100B9000009A1C9B1A6019B030BD00BFFC230008EE
:100BA0002DE9F0418CB004461546129E4FF0530ECD
:100BB0008DF82CE04FF06B0C8DF82DC088278DF848
:100BC0002E7000208DF82F004FF0400884F8008030
:100BD00084F801E084F802C0E77020716071A671AA
:100BE000C6F30720E071237203A8FFF7F9FA334632
:100BF0000BAA294603A8FFF71FFF2A4603A904F101
:100C00000900FFF7EDFA05F1090702AB009333463F
:100C10000BAA39462046FFF77BFF029BE35105F103
:100C20000D000CB0BDE8F08108B5052000F03EFADB
:100C300008BD0000F0B583B004460D461646FFF728
:100C4000F3FF0B4F00221021384600F053FE6423BF
:100C5000009333462A4621460648006801F0DDF934
:100C600001221021384600F045FE03B0F0BD00BF60
:100C70000008014088000020014B1860704700BF49
:100C80008800002010B5012210210A4800F032FE31
:100C9000094C00220121204600F02CFE322000F0F9
:100CA00005FA01221146204600F024FE642000F0DF
:100CB000FDF910BD00080140000C014000B587B0EF
:100CC000002303930493ADF814308023ADF804306F
:100CD000022203A901A8FFF7ADFF052000F0E6F905
:100CE00047F68973ADF80430022203A901A8FFF783
:100CF000A1FF142000F0DAF907238DF80430012257
:100D000003A901A8FFF796FF052000F0CFF996236D
:100D1000ADF80430022203A901A8FFF78BFF0520DC
:100D200000F0C4F940F29D13ADF80430022203A98B
:100D300001A8FFF77FFF052000F0B8F9324B1B68D0
:100D4000ADF804301B0C8DF80630032203A901A86E
:100D5000FFF770FF052000F0A9F94FF4C573ADF857
:100D60000430022203A901A8FFF764FF052000F068
:100D70009DF9264B93E8030001908DF80810052299
:100D800003A901A8FFF756FF052000F08FF9204BBB
:100D900093E8030001908DF80810052203A901A82B
:100DA000FFF748FF052000F081F91A4B1B68ADF8EA
:100DB00004301B0C8DF80630032203A901A8FFF7AD
:100DC00039FF052000F072F9134B93E803000190FE
:100DD0008DF80810052203A901A8FFF72BFF0520B5
:100DE00000F064F90D4B93E8030001908DF80810B2
:100DF000052203A901A8FFF71DFF052000F056F901
:100E000007B05DF804FB00BF0C24000810240008A4
:100E1000D4220008182400081C24000824240008F8
:100E20002DE9F04186B007460E4600240394049451
:100E3000ADF814408023ADF80430022203A901A8C4
:100E4000FFF7F8FE052000F031F9354B9B68ADF84F
:100E500004301B0C8DF80630032203A901A8FFF70C
:100E6000E9FE052000F022F98C238DF804308DF87E
:100E7000054008238DF806308DF807408DF808608E
:100E800001258DF809508DF80A40072203A901A811
:100E9000FFF7D0FE052000F009F90E238DF8003091
:100EA0008DF80440FFF7C0FEDFF87880224610215D
:100EB000404600F01FFD1C4C64232A46694620680A
:100EC00000F0C9FF64232A4601A9206800F0C3FF8F
:100ED000642332463946206800F0BDFF2A461021BF
:100EE000404600F007FD052000F0E0F80F4B1B68BE
:100EF000ADF804301B0C8DF80630032203A901A8BD
:100F0000FFF798FE052000F0D1F883230193042217
:100F100003A90DEB0200FFF78DFE06B0BDE8F081DE
:100F2000D422000800080140880000202C2400087A
:100F300000B587B0002302930393049305930193B4
:100F4000074B04930123059300F07EFD01A902A83D
:100F500000F046FE00F092FD07B05DF804FB00BF14
:100F600000FC000830B400221546104602E020467E
:100F7000012501327F2A0FD802F1807303F5FC535B
:100F8000DB001C685B6806498B42F0D0B4F1FF3F80
:100F9000EFD1B3F1FF3FECD105B9002030BC704771
:100FA00001FCFECA0000000038B50546002100E043
:100FB00001317F2925D801F1807303F5FC53DB0053
:100FC0001C68B4F1FF3FF3D15B68B3F1FF3FEFD191
:100FD000802918D001F1807101F5FC51CC0000F09E
:100FE00033FD2A4600232146022000F085FD08A398
:100FF000D3E90023211D022000F07EFD00F03EFD1C
:1010000038BD8021E4E7FFF793FF0021E2E700BF4E
:1010100001FCFECA0000000010B504460E4B187813
:101020004FF47A73B3FBF0F30C4A1068B0FBF3F0A3
:1010300000F0B0FC68B90F2C01D901200AE00022B1
:1010400021464FF0FF3000F06DFC054B1C60002086
:1010500000E0012010BD00BF0000002008000020BB
:101060000400002008B5074A136843F0100313601A
:10107000032000F045FC0F20FFF7CEFFFFF7B2FA88
:10108000002008BD00200240034A1168034B1B7872
:101090000B441360704700BF8C000020000000204C
:1010A000014B1868704700BF8C00002038B504461B
:1010B000FFF7F6FF0546B4F1FF3F02D0044B1B7863
:1010C0001C44FFF7EDFF401BA042FAD338BD00BF20
:1010D0000000002082B0084B1B68084AA2FB0323D3
:1010E0005B0A00FB03F3019300BF019B5A1E0192B0
:1010F000002BF9D102B0704708000020D34D6210D8
:10110000002800F0F18170B582B00446036813F046
:10111000010F2CD0994B5B6803F00C03042B1DD0FE
:10112000964B5B6803F00C03082B12D06368B3F591
:10113000803F41D0002B55D103F1804303F50433A8
:101140001A6822F480321A601A6822F480221A6027
:1011500037E08A4B5B6813F4803FE7D0874B1B680E
:1011600013F4003F03D06368002B00F0BF812368B5
:1011700013F0020F75D0814B5B6813F00C0F5FD03A
:101180007E4B5B6803F00C03082B54D02369002BC3
:1011900000F08A807A4B01221A60FFF781FF054632
:1011A000764B1B6813F0020F75D1FFF779FF401BD8
:1011B0000228F5D903209EE1704A136843F4803376
:1011C0001360636843B3FFF76BFF05466B4B1B6807
:1011D00013F4003FCBD1FFF763FF401B6428F5D920
:1011E000032088E1B3F5A02F09D0644B1A6822F4DC
:1011F00080321A601A6822F480221A60E1E703F153
:101200008043A3F53C331A6842F480221A601A68BE
:1012100042F480321A60D4E7FFF742FF0546574B8D
:101220001B6813F4003FA2D0FFF73AFF401B64286D
:10123000F5D903205FE1514B5B6813F4803FA5D1E2
:101240004E4B1B6813F0020F03D02369012B40F0B3
:101250004F814A4A136823F0F803616943EAC103E6
:101260001360236813F0080F33D0A369002B5CD000
:10127000434B0122C3F88024FFF712FF05463F4B82
:101280005B6A13F0020F21D1FFF70AFF401B02280F
:10129000F5D903202FE1394A136823F0F803616977
:1012A00043EAC1031360DCE7354B00221A60FFF705
:1012B000F7FE0546314B1B6813F0020FD1D0FFF744
:1012C000EFFE401B0228F5D9032014E10120FFF7AF
:1012D00001FF236813F0040F00F09680274BDB69B1
:1012E00013F0805F34D1254BDA6942F08052DA6125
:1012F000DB6903F080530193019B0125214B1B689F
:1013000013F4807F26D0E368012B3DD0002B53D10E
:1013100003F1804303F504331A6A22F001021A62D2
:101320001A6A22F004021A6233E0154B0022C3F855
:101330008024FFF7B5FE0546104B5B6A13F0020FE1
:10134000C7D0FFF7ADFE401B0228F5D90320D2E03D
:101350000025D3E70B4A136843F480731360FFF74B
:101360009FFE0646074B1B6813F4807FCBD1FFF727
:1013700097FE801B6428F5D90320BCE000100240D2
:1013800000004242007000405F4A136A43F00103CC
:101390001362E36833B3FFF783FE06465A4B1B6ABA
:1013A00013F0020F2FD1FFF77BFE801B41F2883331
:1013B0009842F3D903209EE0052B09D0524B1A6ABC
:1013C00022F001021A621A6A22F004021A62E0E7AD
:1013D0004D4B1A6A42F004021A621A6A42F0010284
:1013E0001A62D6E7FFF75CFE0646474B1B6A13F00E
:1013F000020F08D0FFF754FE801B41F28833984259
:10140000F3D9032077E0E5B9E369002B72D03E4AB7
:10141000526802F00C02082A56D0022B17D03B4B20
:1014200000221A66FFF73CFE0446374B1B6813F098
:10143000007F47D0FFF734FE001B0228F5D90320B8
:1014400059E0314AD36923F08053D361DCE72F4B55
:1014500000221A66FFF724FE05462B4B1B6813F08B
:10146000007F06D0FFF71CFE401B0228F5D90320A1
:1014700041E0236AB3F5803F1AD023494B6823F437
:101480007413226A606A024313434B601F4B0122AC
:101490001A66FFF705FE04461B4B1B6813F0007F1E
:1014A0000ED1FFF7FDFD001B0228F5D9032022E035
:1014B000154A536823F40033A1680B435360DCE7FB
:1014C000002018E0002016E0012B16D00E4B5B68C0
:1014D00003F48031226A914211D103F47013626ADD
:1014E00093420ED1002006E001207047012002E067
:1014F000012000E0002002B070BD0120FBE70120C8
:10150000F9E70120F7E700BF001002400000424267
:101510000F4B5B6803F00C02082A01D00D4870479E
:10152000C3F383420C49885C13F4803F0BD0084B13
:101530005B68C3F34043094AD35C064A02FB00F0F0
:10154000B0FBF3F07047064B03FB00F0704700BFA1
:101550000010024000127A003024000840240008E5
:1015600000093D00002800F0A08070B50D4604463B
:10157000524B1B6803F007038B420BD24F4A136890
:1015800023F007030B431360136803F007038B4238
:1015900040F08D80236813F0020F17D013F0040F72
:1015A00004D0474A536843F4E0635360236813F060
:1015B000080F04D0424A536843F460535360404AD2
:1015C000536823F0F003A1680B435360236813F0C2
:1015D000010F31D06368012B20D0022B25D0384A6F
:1015E000126812F0020F64D035494A6822F00302F3
:1015F00013434B60FFF754FD0646314B5B6803F025
:101600000C036268B3EB820F16D0FFF749FD801B15
:1016100041F288339842F0D9032045E0284A126805
:1016200012F4003FE0D101203EE0254A126812F09A
:10163000007FD9D1012037E0204B1B6803F007035E
:10164000AB420AD91D4A136823F007032B431360EA
:10165000136803F00703AB422DD1236813F0040F86
:1016600006D0174A536823F4E063E1680B435360E4
:10167000236813F0080F07D0114A536823F460530E
:10168000216943EAC1035360FFF742FF0C4B5B68DB
:10169000C3F303130B4AD35CD8400B4B18600B4BBE
:1016A0001868FFF7B9FC002070BD012070470120C9
:1016B000FAE70120F8E70120F6E700BF002002402A
:1016C000001002404424000808000020040000200C
:1016D00070B582B00024A446A6E0804DAA4210D086
:1016E00007D97F4DAA420CD005F58035AA4208D013
:1016F00013E0A5F58015AA4203D005F57025AA428E
:1017000007D18A68002A58D0012A51D043610824A1
:1017100003E0A5F58015AA42F3D0BEF1FF0F4ED825
:101720000646BEF1FF0F4CD84FEA8C0233680F25F6
:10173000954023EA050304FA02F2134333604B6831
:1017400013F0805F6ED0674B9A6942F001029A6194
:101750009B6903F001030193019B4FEA9C02951CD6
:10176000614B53F825600CF003039D000F23AB4041
:1017700026EA03065D4B984229D003F58063984220
:1017800000F08E8003F58063984200F08B8003F5B3
:101790008063984219D004231AE0CC68BDE7CC6876
:1017A0000434BAE7CC680834B7E7CC680C34B4E743
:1017B00003610824B1E70024AFE70424ADE7061D68
:1017C000AFE7ACF108029200B0E7032300E000238A
:1017D000AB4033430232444D45F822304B6813F49A
:1017E000801F61D0424A936843EA0E0393604B68BE
:1017F00013F4001F5ED03E4AD36843EA0E03D36061
:101800004B6813F4003F5BD0394A536843EA0E0338
:1018100053604B6813F4803F58D0354A136843EA4D
:101820000E0313600CF1010C0A6832FA0CF353D06A
:10183000012303FA0CF302EA030E33EA0202F1D1A8
:101840004A68122A3FF649AF122A3FF666AF01A551
:1018500055F822F0031700089B170008A517000889
:10186000B71700081B1700081B1700081B170008F4
:101870001B1700081B1700081B1700081B17000880
:101880001B1700081B1700081B1700081B17000870
:101890001B1700081B1700089F170008AB1700084C
:1018A000012395E7022393E7114A936823EA0E0385
:1018B00093609CE70E4AD36823EA0E03D3609FE748
:1018C0000B4A536823EA0E035360A2E7084A1368E1
:1018D00023EA0E031360A5E702B070BD00002210DA
:1018E00000003110001002400000014000080140DB
:1018F000000401400AB101617047090401617047A9
:10190000074AD36823F4E0631B041B0C000200F4B5
:10191000E060034343F0BF6343F40033D360704798
:1019200000ED00E000B5194BDB68C3F30223C3F1FF
:10193000070CBCF1040F28BF4FF0040C03F1040E98
:10194000BEF1060F18D9033B4FF0FF3E0EFA0CFC18
:1019500021EA0C0199400EFA03F322EA030319432A
:1019600000280BDB0901C9B200F1604000F56140BD
:1019700080F800135DF804FB0023E5E700F00F009A
:101980000901C9B2024B1954F4E700BF00ED00E0B1
:1019900014ED00E00138B0F1807F0BD24FF0E0236E
:1019A0005861054AF02182F823100020986107222F
:1019B0001A6170470120704700ED00E0044B0022DF
:1019C000DA61044A136943F001031361018070472F
:1019D0009000002000200240194BDB6813F0100338
:1019E00005D0184AD36943F00203D3611023144A87
:1019F000D26812F0040F06D01249CA6942F00102FF
:101A0000CA6143F004030E4AD26912F0010F09D0F3
:101A10000C49CA6942F00402CA610949CA6922F044
:101A20000102CA6140F20112934202D0044AD3601B
:101A30007047034AD36923F00103D361704700BFA5
:101A400000200240900000200A4B1B6913F0800F19
:101A50000BD0084B084A5A6002F188325A601B6961
:101A600013F0800F03D10020704700207047012041
:101A7000704700BF0020024023016745034A1369F5
:101A800043F0800313610020704700BF0020024034
:101A900038B50446FFF704FB0546164BDB6813F028
:101AA000010F0AD0B4F1FF3FF7D024B1FFF7F8FAE5
:101AB000401BA042F1D903201BE00E4BDB6813F062
:101AC000200F02D00B4B2022DA600A4BDB6813F0A8
:101AD000100F0BD1074BDB6913F0010F06D1054B3B
:101AE000DB6813F0040F01D1002002E0FFF774FF60
:101AF000012038BD002002402DE9F8431E46244B4A
:101B00001B7E012B41D004460F469046204B0122FC
:101B10001A764CF25030FFF7BBFF034678BB012C1E
:101B200008D0022C03D04FF004091C4607E04FF008
:101B30000209FAE74FF00109F7E70134E4B24C4536
:101B40001DD22101C1F12002A1F1200328FA01F1E7
:101B500006FA02F2114326FA03F3194389B207EB9E
:101B60004400FFF72BFF4CF25030FFF791FF094B79
:101B70001D6925F001051D6103460028DDD0044ADA
:101B8000002111761846BDE8F8830223FAE700BF6A
:101B90009000002000200240064B0022DA61064B34
:101BA0001A6942F004021A611A6942F040021A618D
:101BB000704700BF9000002000200240064B00222A
:101BC000DA61064B1A6942F002021A6158611A6919
:101BD00042F040021A61704790000020002002404D
:101BE000264B1B7E012B46D070B505460E46234B77
:101BF00001221A760368022B20D04CF25030FFF7F6
:101C000047FF90BB4FF0FF333360AC680121EA68B7
:101C1000AB6803EB8223A34228D92046FFF7CEFF0F
:101C20004CF25030FFF734FF154A136923F00203DA
:101C300013610146B8B904F58064E8E74CF250300E
:101C4000FFF726FF08B1012110E00120FFF7A4FFF4
:101C50004CF25030FFF71CFF0146094A136923F08C
:101C60000403136102E0346000E00121034B002211
:101C70001A76084670BD0221084670479000002081
:101C800000200240704700002DE9F04782B0054671
:101C9000884617461E46FFF703FA0A9B1B1A03EBFA
:101CA0000609FFF7FDF982462B4B1B68C3F3CB33C4
:101CB00009FB03F301932B689C6838EA04030CBF0B
:101CC0004FF0010C4FF0000CBC4540D0B6F1FF3F87
:101CD000F1D0FFF7E5F9A0EB0A0048450AD2B9F1C7
:101CE000000F07D0019A02B14A46019B013B0193C4
:101CF0009146E0E72A68536823F0E00353606B687D
:101D0000B3F5827F0BD0AB6AB3F5005F14D001232B
:101D100085F85130002385F85030032018E0AB6877
:101D2000B3F5004F02D0B3F5806FECD12A68136889
:101D300023F040031360E6E72A68136823F4005396
:101D400013602A68136843F400531360DFE7002030
:101D500002B0BDE8F08700BF0800002070B582B077
:101D600006460C46154600920B4601220221FFF75B
:101D70008BFF48B900952346002280213046FFF7AB
:101D800083FF38B902B070BD736D43F020037365F3
:101D90000320F7E7736D43F0200373650320F1E739
:101DA000002856D010B50446436A33B94368B3F5EA
:101DB000827F05D00023C36102E0002303614361F9
:101DC0000023A36294F85130002B3CD0022384F806
:101DD00051302268136823F040031360636803F4F2
:101DE0008273A26802F404421343E26802F40062C0
:101DF0001343226902F002021343626902F00102F6
:101E00001343A26902F400721343E26902F038023C
:101E10001343226A02F080021343A26A02F40052C2
:101E2000216813430B60638B226803F00403536043
:101E30002268D36923F40063D36100206065012325
:101E400084F8513010BD84F850302046FEF7ECFB8A
:101E5000BCE7012070472DE9F04383B00446894672
:101E600090461D46FFF71CF994F85160F6B2012E1A
:101E700040F0CC800746B9F1000F00F0C880B8F1FF
:101E8000000F00F0C48094F85030012B00F0C380A4
:101E9000012384F85030032384F851300023636514
:101EA000C4F83090A4F83480A4F83680A363A387E4
:101EB000E38763642364A368B3F5004F1ED02368EF
:101EC0001A6812F0400F03D11A6842F040021A60FB
:101ED000E368B3F5006F1CD0636813B1B8F1010F6C
:101EE0005FD1226B236812781A73236B013323634B
:101EF000E38E9BB2013B9BB2E38652E022681368FB
:101F000023F0400313602268136843F48043136096
:101F1000D5E7636813B1B8F1010F15D1226B2368BF
:101F20001288DA60236B02332363E38E9BB2013B9A
:101F30009BB2E38608E0FFF7B3F8C01BA84202D3C8
:101F4000B5F1FF3F15D1A5B1E38E9BB2002B42D076
:101F500023689A6812F0020FEDD0226B1288DA60C3
:101F6000236B02332363E38E9BB2013B9BB2E38678
:101F7000EAE7012384F85130002384F85030032627
:101F800045E0226B12781A73236B01332363B4F894
:101F900036C01FFA8CFC0CF1FF3C1FFA8CFCA4F835
:101FA00036C0E38E9BB2B3B123689A6812F0020F79
:101FB000E7D1FFF775F8C01BA84202D3B5F1FF3F88
:101FC00001D1002DEDD1012384F85130002384F894
:101FD000503003261BE03A4629462046FFF7BEFE56
:101FE00008B120236365A36833B901932368DA68D5
:101FF00001929B680193019B012384F851300023D7
:1020000084F85030636D13B9002600E00226304694
:1020100003B0BDE8F0830226F9E72DE9F04383B071
:102020000446884691461F460A9DFFF739F8064642
:1020300094F85130DBB26268012B0AD0B2F5827F8E
:1020400040F00581A268002A40F00581042B40F091
:102050000481B8F1000F00F00281B9F1000F00F027
:102060000081002F00F0FF8094F85030012B00F029
:10207000FC80012384F8503094F85130DBB2042BFB
:1020800002D0052384F8513000236365C4F83890EA
:10209000E787A787C4F83080E786A7862364636450
:1020A00023681A6812F0400F03D11A6842F0400208
:1020B0001A60E368B3F5006F11D063680BB1012FAC
:1020C0000BD1226B236812781A73236B01332363BD
:1020D000E38E9BB2013B9BB2E386012771E063680C
:1020E0000BB1012F0BD1226B23681288DA60236BAE
:1020F00002332363E38E9BB2013B9BB2E38601274D
:102100001BE023689A6812F0010F0ED0E28F92B2A2
:102110005AB1DA68A36B1A80A36B0233A363E38F0F
:102120009BB2013B9BB2E3870127FEF7B9FF801BFF
:10213000A84202D3B5F1FF3F1ED1E38E9BB21BB97B
:10214000E38F9BB2002B62D023689A6812F0020FD3
:10215000D7D0E28E92B2002AD3D0002FD1D0226BFA
:102160001288DA60236B02332363E38E9BB2013B58
:102170009BB2E3860027C4E7012384F85130002393
:1021800084F85030032063E023689A6812F0010F4E
:102190000ED0E28F92B25AB1DA68A36B1A70A36BB9
:1021A0000133A363E38F9BB2013B9BB2E38701271B
:1021B000FEF776FF831BAB4202D3B5F1FF3F1ED182
:1021C000EDB1E38E9BB213B9E38F9BB2FBB12368F1
:1021D0009A6812F0020FD7D0E28E92B2002AD3D0C2
:1021E000002FD1D0226B12781A73236B0133236333
:1021F000E38E9BB2013B9BB2E3860027C4E7012339
:1022000084F85130002384F85030032020E0324617
:1022100029462046FFF7A2FD90B9A36833B9019380
:102220002368DA6801929B680193019B012384F87B
:102230005130002384F85030636D4BB1012007E02A
:1022400020236365002384F85030012000E0022041
:1022500003B0BDE8F0830220FAE70220F8E701208E
:10226000F6E70120F4E70120F2E70220F0E70000A2
:10227000FFF708FD0B480C490C4A002302E0D45834
:10228000C4500433C4188C42F9D3094A094C0023C2
:1022900001E013600432A242FBD3FDF77DFFFEF79D
:1022A00051F97047000000200C0000205C24000859
:1022B00010000020B0000020FEE70000F8B500BFCD
:1022C000F8BC08BC9E467047F8B500BFF8BC08BC17
:0422D0009E4670476F
:1022D40095040700010000008F00000000010204C3
:1022E40008102040801B3600637C777BF26B6FC53F
:1022F4003001672BFED7AB76CA82C97DFA5947F005
:10230400ADD4A2AF9CA472C0B7FD9326363FF7CCE0
:1023140034A5E5F171D8311504C723C31896059A7D
:10232400071280E2EB27B27509832C1A1B6E5AA0A0
:10233400523BD6B329E32F8453D100ED20FCB15B8B
:102344006ACBBE394A4C58CFD0EFAAFB434D3385F4
:1023540045F9027F503C9FA851A3408F929D38F5C8
:10236400BCB6DA2110FFF3D2CD0C13EC5F974417FF
:10237400C4A77E3D645D197360814FDC222A908876
:1023840046EEB814DE5E0BDBE0323A0A4906245C02
:10239400C2D3AC629195E479E7C8376D8DD54EA967
:1023A4006C56F4EA657AAE08BA78252E1CA6B4C633
:1023B400E8DD741F4BBD8B8A703EB5664803F60E8C
:1023C400613557B986C11D9EE1F8981169D98E947B
:1023D4009B1E87E9CE5528DF8CA1890DBFE6426894
:1023E40041992D0FB054BB160102030405060708DA
:1023F400090A0B0C0D0E0F10001122334455667799
:102404008899AABBCCDDEEFF98D7DB008636403D29
:10241400600000008E1604008B0C04010100000013
:102424000D0740344400000002FFFF0002030405CE
:10243400060708090A0B0C0D0E0F1010010200000C
:102444000000000000000000010203040607080960
:042454007901000802
:042458005101000826
:0C245C00010000001000000000127A00D7
:04000005080022715C
:00000001FF
